:020000040000FA
:0600000002010A021D923C
:03002B00022200AE
:030033000221E2C5
:03003B0002221985
:0300430002219601
:03005300021E0882
:03006B000221BCB3
:10008300021C83E5C754F84401F5C7790122000037
:100093000080FB120086B900030200F4E4792178A2
:1000A30008B800028004F709D8FCE479297802B87B
:1000B30000028004F709D8FCE4900281783B7909B7
:1000C3008002F0A3D8FCD9FA900ABBAA82AB839032
:1000D300013A78FF79038015E493A3AC82AD838A58
:1000E300828B83F0A3AA82AB838C828D83D8E9D9D8
:1000F300E7758260758399740312011C758291758B
:100103008300740012011C75D00075813F7518813E
:10011300751902759F00020096C09FF59FE473D086
:100123009F22D083D082C09FE493C0E0740193C028
:10013300E0740293F59F22FF0000B400002800281A
:1001430000283075A000A000A000A000000800084F
:10015300E001F0001000100010001000100010006B
:1001630050005000500010001000D00700000000A5
:1001730000000F00010005003075070010000100AA
:1001830081FF0000FF360654063C06FF0202020808
:10019300025000A0000000E803029F900100008AC3
:1001A3009002B790010000100B029390010000B27F
:1001B3000202B790010000110B029590010000C8E4
:1001C3000202B790010000120B029790010000CACF
:1001D3000202B790010000130B029990080000CBB4
:1001E3000202B790010000140B029B90010000155E
:1001F3000BFF0100FF20029F900100008D9002B7CA
:1002030090010000790B029D90000000000002A500
:10021300900300001803660C660C660C660C660CF3
:10022300660C660C660C660C660C660C660C660C3B
:10023300360F4E0F300FFFFF0202020202020202CC
:1002430002010D0000001001029F90010000879041
:1002530002B790010000BC0B02B9900100007807BF
:1002630002B790010000BD0B02B3900100005F8F45
:1002730002B790010000BE0B02B190010000378F5E
:1002830002B790010000BF0B02AF90010000918EF6
:1002930002B790010000C00B02AD90010000B58EC3
:1002A30002B790010000C10B02AB900100007F8EEA
:1002B30002B790010000C20B02CF90010000A38E91
:1002C30002B790010000C30B02A990010000298F1F
:1002D30002B790010000C40B02A790010000C50BF8
:1002E30001E803053F10FF0001307503020106001A
:1002F30000000000000000000000000000000000FB
:100303000000000000000000000000FFFF06008066
:100313000CE803140953696D706C65424C455065D4
:10032300726970686572616C051250002003020ADD
:10033300000201060302F0FF53696D706C652042F1
:100343004C45205065726970686572616CBC13001E
:1003530000C2130A436861726163746572697374DE
:100363006963203100024368617261637465726975
:100373007374696320320008436861726163746552
:100383007269737469632033001043686172616337
:10039300746572697374696320340002436861721F
:1003A30061637465726973746963203500029F9099
:1003B300010000909002B790010000D70C02C79093
:1003C300030000AC0A02B590010000D80C02B790FC
:1003D300010000E90C02C990010000AD0A02B590CA
:1003E300010000EA0C02B790010000FB0C02CB9065
:1003F300020000AE0A02B590010000FC0C02B790A7
:100403000100000D0D02CD90000000AF0A02A5907F
:10041300030000B00A02B5900100000E0D02B79070
:100423000100001F0D02BB90040000B60A02B59044
:10043300010000200D120125348C031201254B8C81
:10044300031201257A8C03120125B38C03120125B3
:10045300DB8C03120125098D03120125208D031264
:100463000125378D031201254D8D03120125748D4E
:1004730003120125878D031201259D8D031201258A
:10048300B08D03120125D58D03120125828C021232
:100493000125818D02120125B68D02120125D78D0A
:1004A30002120125E78D02120125088E0212012591
:1004B300148F02120125E18F0212012554900212BA
:1004C3000125DA90021201251D9102120125549192
:1004D30002120125DA9102120125AC9202120125C2
:1004E3000A93021201252293021201259C93021200
:1004F30001259F9302120125A2930212012549941B
:100503000212012561940212012591940212012520
:10051300B194021201259F950212012555960212EC
:100523000125CFDA02120125F7DA0212012525DBB4
:10053300021201255CDB02120125C4DB0212012534
:100543000DDC0212012558DC0212012596DC021291
:100553000125D3DC0212012501DD02120125A8DDEC
:1005630002120125B2DD02120125BFDD02120125AF
:10057300F2DD02120125B4DE02120125C0DE0212F1
:100583000125D8DE02120125E2DE0212012585943F
:1005930003120125939403120125AB940312012541
:1005A300C3940312012558AF01120125F6AF0112BE
:1005B30001256EB00112012583B101120125BDB1E0
:1005C3000112012566B2011201253BB30112012577
:1005D3009FB401120125F6B4011201257DB5011264
:1005E300012564B601120125B1B6011201253FB7F9
:1005F3000112012563B70112012538B90112012542
:1006030079B9011201259BB9011201251CBA011206
:10061300012506BB01120125CCBB01120125B5BF83
:100623000212012587C00212012530C102120125E1
:1006330073C10212012500C2021201258CC20212EB
:1006430001256DC3021201259CC30212012598C422
:1006530002120125E0C402120125E2C5021201259E
:1006630026C6021201254CC6021201253B9703122E
:100673000125EDEB0212012503EC0212012529EC01
:100683000212012551ED021201255BED0212012533
:10069300B4EE02120125B4EF021201253DCC021281
:1006A300012572CD02120125A5CD02120125EFCD40
:1006B30002120125ADCF02120125D39001120125AB
:1006C3003691011201257B92011201258B920112B1
:1006D3000125AE9201120125F992011201259E9383
:1006E300011201259494011201255E950112012541
:1006F300D69601120125189701120125B69701120A
:100703000125039801120125299801120125179A41
:10071300011201251C9A01120125FD9B01120125DD
:10072300519C01120125B39C01120125DB9C01128E
:1007330001257F9D01120125419E01120125729E13
:1007430001120125759E01120125BD9E011201258D
:10075300FF9E01120125669F01120125DE8503120A
:100763000125F185031201250A8603120125558609
:1007730003120125308703120125BF8703120125C8
:100783000A88031201258C220012012598220012E7
:100793000125D12200120125162300120125CD23A4
:1007A30000120125532400120125B824001201254B
:1007B300E424001201251D25001201253127001212
:1007C30001250D2900120125F82A001201252F2CDD
:1007D300001201258F2E001201257B2F0012012507
:1007E300C13000120125CE3100120125EB31001278
:1007F30001252332001201253D3200120125A532C5
:10080300001201253F3700120125E03700120125B0
:10081300313800120125583800120125A63800127C
:100823000125C43800120125183900120125F139B8
:1008330000120125783B00120125003C001201251E
:1008430025D6021201252FD602120125FAD602124D
:10085300012515D7021201253BD7021201257FD7A7
:1008630002120125B7D702120125E0D70212012592
:1008730059D8021201256ED80212012583D802121B
:100883000125BAD802120125CED802120125FFD8BC
:100893000212012539D90212012565D90212012557
:1008A300BBD9021201250FDA0212012558DA02120E
:1008B300012582DA02120125A7DA0212012501E8D5
:1008C30002120125CBE802120125AEE9021201252D
:1008D30024EA0212012566EA0212012593EB0212B1
:1008E3000125008002120125298002120125428080
:1008F3000212012587810212012565820212012558
:1009030084820212012511830212012554830212EB
:100913000125A18402120125408502120125BF870A
:10092300021201255688021201252A890212012585
:100933000C8A02120125788B021201250B8C0212FC
:1009430001256E9203120125D792031201252B93E1
:100953000312012552930312012577DF02120125A9
:10096300E4DF021201252FE00212012524E1021225
:10097300012520E2021201250AE302120125C39F89
:100983000212012505A002120125DFA00212012592
:10099300B8A102120125B3A20212012592A30212E9
:1009A3000125FEA302120125C5A40212012530A5CB
:1009B3000212012597A502120125C2A502120125E3
:1009C30033A602120125C6A6021201252FA7021281
:1009D300012544A7021201258CA702120125A5A710
:1009E300021201250AA8021201250DA802120125EF
:1009F300008003120125288003120125668003125B
:100A030001252481031201258F8103120125AB8166
:100A130003120125D3810312012503820312012549
:100A23001282031201258C8203120125B282031262
:100A3300012530A001120125CDA101120125B3A387
:100A4300011201257DA401120125C4A4011201256F
:100A53000BA5011201251DA5011201255DA501129A
:100A630001258CA501120125D8A50112012510A687
:100A7300011201253EA6011201258FA601120125AF
:100A83001EA7011201250CAA01120125E6AB0112D2
:100A9300012522AC011201257CAD01120125C3AD54
:100AA3000112012538AE0112012586AE011201257E
:100AB300BDAE01120125C09602120125DD96021278
:100AC3000125779C02120125799D02120125F39ECF
:100AD30002120125A19F0212012547500012012590
:100AE300905000120125BD5000120125F050001254
:100AF3000125FD50001201250951001201251B514A
:100B030000120125F051001201254E520012012559
:100B13008352001201251F54001201256C54001248
:100B23000125905400120125FD5400120125A25500
:100B3300001201255E5600120125DD560012012523
:100B4300A15700120125B057001201253158001298
:100B53000125D058001201250259001201259D5983
:100B630000120125FB5900120125355A00120125F7
:100B7300B65A001201257F5B00120125285C001282
:100B83000125AF5C00120125075D00120125685D98
:100B930000120125915D00120125475E0012012517
:100BA300915F00120125D45F00120125F15F00124D
:100BB30001251060001201255B6000120125806091
:100BC30000120125A96000120125186100120125F8
:100BD3005A61001201255E6200120125F8620012BB
:100BE3000125C46300120125DD63001201255F7630
:100BF30000120125B27600120125BE7600120125EE
:100C0300937700120125BA7700120125F5770012B8
:100C13000125617800120125957800120125CE780F
:100C230000120125E678001201253F790012012503
:100C3300587900120125A17900120125B479001217
:100C43000125CE7900120125E47900120125007BEC
:100C530000120125117C001201255E7D0012012581
:100C6300437E00120125F8FF01120125FDE6011262
:100C7300012531E7011201259CEA01120125E6EB6A
:100C830001120125B0EC011201253AEE01120125F2
:100C930015EF011201254FEF0112012572EF011229
:100CA3000125B4EF01120125BDEF0112012507F063
:100CB3000112012511F001120125BDF001120125D8
:100CC30091F101120125E5F10112012547F201120B
:100CD30001259AF201120125C9F20112012508F337
:100CE300011201250F6400120125696C0012012510
:100CF3006F6C001201252A72001201251076001272
:100D0300012579FA02120125EFFA0212012505FBEA
:100D13000212012542FB021201257AFB0212012570
:100D2300F7FB0212012532FC02120125ADFC02126F
:100D33000125E9FC02120125F2FC02120125FEFC49
:100D43000212012518FD021201253DFD02120125A3
:100D530053FD0212012597FD0212012563D10212F0
:100D6300012576D10212012590D102120125B9D1B4
:100D730002120125FCD1021201253BD202120125E8
:100D830079D202120125DED202120125F3D2021218
:100D93000125FED2021201250BD30212012522D313
:100DA3000212012530D3021201253BD30212012581
:100DB30047D3021201255AD30212012565D3021229
:100DC300012588D30212012531D40212012541D411
:100DD300021201255BD40212012578D402120125E7
:100DE30094D402120125B9D402120125C3D40212EC
:100DF3000125D7D402120125F6D40212012557D5B5
:100E0300021201255DD50212012563D502120125C7
:100E130069D50212012575D502120125A8D5021242
:100E2300012584CC0112012506CD01120125AFCD88
:100E330001120125F7CE0112012505D10112012569
:100E4300EBD10112012520D20112012542D2011258
:100E53000125EBD201120125BBD401120125E4D4F3
:100E6300011201255CD5011201258ED50112012540
:100E73009BD501120125E6D5011201250AD60112DF
:100E830001255BD80112012565D901120125C1D9BC
:100E93000112012501BE0112012512BF0112012514
:100EA300F6BF0112012500C00112012522C0011263
:100EB30001252EC001120125D2C101120125FFC156
:100EC3000112012515C3011201256AC3011201256F
:100ED300B9C4011201258EC501120125EAC501120B
:100EE300012555C6011201258AC601120125CDC669
:100EF3000112012597C901120125AFC9011201256C
:100F030040CA011201254ECA011201259BCA0112D2
:100F13000125A9CA0112012515CB0112012590CB88
:100F230001120125E7CB01120125E3F3011201258B
:100F330005F40112012516F601120125D5F8011257
:100F43000125FFF901120125BDFA01120125A9FBB3
:100F5300011201257B8A03120125A08A03120125B0
:100F6300168B0312012598B802120125A1B80212AB
:100F73000125AAB80212012582B90212012533BB49
:100F83000212012563BB021201258EBB0212012549
:100F9300BEBB02120125E9BB021201251DBC0212D0
:100FA300012549BC021201258CBC02120125B7BCE4
:100FB30002120125FEBC0212012553BD02120125B6
:100FC30095BD02120125EFBD021201251ABE0212C0
:100FD300012569BE0212012599BE02120125C4BE74
:100FE30002120125F2BE0212012515BF02120125CC
:100FF300C49703120125F097031201251D980312CC
:10100300012527980312012537980312012567B09C
:101013000212012571B002120125B2B0021201259C
:10102300FBB00212012535B1021201258BB1021268
:101033000125ACB1021201255BB40212012564B48F
:1010430002120125B8B402120125E1B402120125EE
:10105300EBB40212012559B502120125E9B50212BA
:10106300012544B60212012572B602120125FAB611
:101073000212012539B7021201256EB702120125AA
:1010830080B7021201259FB702120125A8B70212E9
:1010930001256AB80212012501FF01120125C7FDCE
:1010A30002120125FDFD0212012531FE0212012566
:1010B3007EFF02120125419803120125579803125E
:1010C3000125619803120125AB9803120125CCE396
:1010D30002120125DFE302120125A3E40212012516
:1010E300E2E402120125FFE40212012538E50212AF
:1010F300012585E502120125B7E502120125EEE57A
:1011030002120125F990031201251C9103120125F6
:101113004B9103120125E39103120125259203123A
:101123000125FA82031201251F8303120125498336
:10113300031201250A9903120125673C00120125B8
:10114300453E00120125E43F001201258F400012A5
:1011530001250F4100120125944100120125BD41D3
:10116300001201259845001201250F4600120125A2
:10117300264700120125604700120125A1470012EE
:101183000125E848001201253E490012012587493F
:1011930000120125F64900120125624A00120125B9
:1011A300934A00120125AB4A00120125C44B0012D9
:1011B3000125D44B001201258A4D00120125A14DB2
:1011C30000120125D34D00120125754F0012012590
:1011D3000950001201255C95031201256D95031238
:1011E3000125B39903120125F299031201256F9A80
:1011F300031201250D96031201251D9603120125E5
:101203003596031201259B9603120125839303123E
:1012130001250894031201256C94031201257F8F85
:1012230003120125A88F0312012513900312012530
:10123300649003120125BF900312012513F70212D4
:10124300012528F70212012561F802120125EAF8A7
:10125300021201255EF90212012578F90212012515
:101263008BF90212012599F902120125B3F9021231
:101273000125CAF902120125F4F90212012544FAE3
:1012830002120125EEFF02120125BEEF0212012513
:101293004EF002120125D7F00212012573F102125A
:1012A300012504F202120125B4F202120125C2F251
:1012B3000212012540F30212012553F30212012504
:1012C30069F30212012573F30212012586F3021258
:1012D3000125A596031201251597031201252097D1
:1012E30003120125309703120125E78D031201250F
:1012F300398E03120125AC8E03120125198F0312B7
:1013030001253488031201255E88031201252D89E6
:1013130003120125098A0312012531A802120125AE
:10132300FDA8021201253EA90212012578A9021285
:101333000125D6A9021201252AAA0212012588AA8B
:10134300021201251EAB0212012526AC0212012551
:10135300B0AD021201254EAE02120125B5AE021246
:101363000125C8AE02120125BCAF0212012505B04A
:10137300021201250EDA0112012540DD01120125B9
:10138300D1DE0112012528DF0112012545DF0112FB
:101393000125C5DF0112012541E10112012510E2FA
:1013A300011201257DE50112012567E601120125E0
:1013B300C1C60212012547C902120125F5C902124D
:1013C30001250ACB021201257CCB02120125FDCB9C
:1013D3000212012589F302120125CEF3021201251F
:1013E300EBF302120125A1F402120125F4F4021217
:1013F3000125C4F502120125DAF602120125FC9932
:1014030003120125B8FF02120125299A03120125AF
:10141300519A03E066701008A3E066700A08A3E01F
:1014230066700408A3E06622C3E7960809E79608F6
:1014330009E7960809E79622C3E09608A3E0960811
:10144300A3E09608A3E09622C008C3E096F5080837
:10145300A3E096420808A3E096420808A3E0964555
:10146300087001D3D00822080808EAC0E0EBC0E006
:1014730086F0E7A4FA180986F0E7A42AFA18098681
:10148300F0E7A42AFA180986F0E7A42AFA1986F0E5
:10149300E7A4FBE5F02AFA190886F0E7A42BFBE59D
:1014A300F03AFA190886F0E7A42BFBE5F03AFA18AC
:1014B300180986F0E7A4C5F02BFBE43AFA1908E70C
:1014C300C5F0C6A426F6E5F03BFBE43AFA1886F02D
:1014D300E7A4F6E5F00826F6E43B08F6E43A08F656
:1014E300D0E0FBD0E0FA22E4CFC0E0E4CEC0E0E4F9
:1014F300CDC0E0E4CCC0E075F020C3E633F608E6E7
:1015030033F608E633F608E633F6181818EC33FC1E
:10151300ED33FDEE33FEEF33FFC3EC9709ED97098F
:10152300EE9709EF97191919400FFFEC97FC09ED96
:1015330097FD09EE97FE191906D5F0BEECF709EDF4
:10154300F709EEF709EFF7191919D0E0FCD0E0FD20
:10155300D0E0FED0E0FF226016080808C6C313C619
:1015630018C613C618C613C618C613C6D5E0EA2292
:101573007009080808226016181818C6C333C6086D
:10158300C633C608C633C608C633C6D5E0EA22E664
:1015930027F60809E637F60809E637F60809E637B5
:1015A300F622E026F608A3E036F608A3E036F608AE
:1015B300A3E036F622E026F008A3E036F008A3E025
:1015C30036F008A3E036F022C3E697F60809E6975B
:1015D300F60809E697F60809E697F622C3E096F0BF
:1015E30008A3E096F008A3E096F008A3E096F022A3
:1015F300E056F608A3E056F608A3E056F608A3E083
:1016030056F622E056F008A3E056F008A3E056F0A1
:1016130008A3E056F022E0F608A3E0F608A3E0F6FC
:1016230008A3E0F622E6F008A3E6F008A3E6F00834
:10163300A3E6F022E0FAA3E0FBA3E0FCA3E0FD2293
:10164300EAF0A3EBF0A3ECF0A3EDF022CAC0E0E6CE
:10165300F0A308DAFAD0E0FA22CAC0E0E0A3C58218
:10166300CCC582C583CDC583F0A3C582CCC582C555
:1016730083CDC583DAE6D0E0CA22C3E498F8E499BF
:10168300F91216BE8026C3E49AFAE49BFBE920E72D
:10169300E91216BEE498F8E499F922C3E498F8E451
:1016A30099F91216BEE498F8E499F9C3E49AFAE4B6
:1016B3009BFB22EB20E7CFE920E7E0B90010BB005A
:1016C30008E88AF084F8AAF022E4FBC8FA22EB7057
:1016D300227B10C833C8C933C9335007C39AC3DB4D
:1016E300F280069A50012ADBEAC833F4C8C933F4FE
:1016F300C9FA2275F008E4C833C8C933C933C99A93
:10170300C99B5004C92AC93BD5F0ECFBC833F4C8C4
:10171300E4C9FA22600D08C6A2E713C618C613C6A9
:10172300D5E0F322600C08C6C313C618C613C6D58A
:10173300E0F422700422600D18C6C333C608C63312
:10174300C6D5E0F41822251810AF08F51840021585
:10175300198008F51840021519D2AF22C0D02518F8
:1017630010AF08F518500205198008F51850020546
:1017730019D2AFD0D0222518F58210AF08F5184042
:101783000215198008F51840021519D2AF8519837F
:10179300222518F582E43519F58322E4732518C54B
:1017A30082C0E0E51934FFC583C0E0E518C3958224
:1017B30024F810AF0885831985821880088583195A
:1017C300858218D2AFCEF0A3E520F0A37808E6080F
:1017D300F0A3DEFAEFF0A3E58124FAF8E608F0A31C
:1017E300E608F0A3E608F0A30808E608F0A3E60875
:1017F300F0A315811581D0E0FED0E0F815811581A5
:101803001581E8C0E0EEC0E0222518C582C0E0E5FE
:101813001934FFC583C0E0E518C3958224F910AFDE
:10182300088583198582188008858319858218D2D3
:10183300AFCEF0A3E520F0A37808E608F0A3DEFA24
:10184300EFF0A3E58124FBF8E608F0A3E608F0A394
:101853000808E608F0A3E608F0A315811581D0E097
:10186300FED0E0F815811581E8C0E0EEC0E02285E6
:101873001983851882E0A3FEE0A3F5207808E0A38E
:10188300F608DFFAE0A3FFE0A3C0E0E0A3C0E0E0D6
:10189300A3C0E0E0A3C0E0E0A3C0E010AF088582EE
:1018A300188583198008858218858319D2AFD08360
:1018B300D082020122851983851882E0A3FEE0A36A
:1018C300F5207808E0A3F608DFFAE0A3FFE0A3C061
:1018D300E0E0A3C0E0E0A3C0E0E0A3C0E010AF08F5
:1018E3008582188583198008858218858319D2AF6C
:1018F300D083D08222C0D02518C582C0E0E5193438
:10190300FFC583C0E0E518C3958224F310AF0885B3
:1019130083198582188008858319858218D2AFC8F8
:10192300F0A3E9F0A3EAF0A3EBF0A37908E709F049
:10193300A3D8FAECF0A3EDF0A3EEF0A3EFF0A3D05D
:10194300E0F0A3D0E0F0A3D0E0F0A3E520F0A3E51E
:10195300F0F0A322851983851882E0C0E0A3E0F9A3
:10196300A3E0FAA3E0FBA37808E0F608A3DFFAE01C
:10197300FCA3E0FDA3E0FEA3E0FFA3E0C0E0A3E03F
:10198300C0E0A3E0F5D0A3E0F520A3E0A3F5F010B9
:10199300AF08858319858218800885831985821885
:1019A300D2AFD082D083D0E0F8D0E0327404800686
:1019B300740280027401C0E0F404121779D0E012BB
:1019C300164F227404800474028000CCC0E0EDC082
:1019D300E0E518C39CCCAD1950011D10AF068C185F
:1019E3008D1980068C188D19D2AF12165CD0E0FDCC
:1019F300D0E0FC22D083D082E9C0E0E493A3C38685
:101A0300F0C5F095F0F908E493A386F0C5F095F0DE
:101A1300700BE493A3C3994005E9048002A3E47522
:101A2300F002A42582F582E5F03583F583D0E0F951
:101A3300E493A3C0E0E493C0E022D083D082ECC05F
:101A4300E0EDC0E0E493A3FCE493A3FDED4C600D53
:101A5300121A89EC24FFFCED34FFFD80EFE493A31D
:101A6300FCE493A3FDED4C600D121AC8EC24FFFCBB
:101A7300ED34FFFD80EFD0E0FDD0E0FCE493A3C0A4
:101A8300E0E493C0E022C0E0C3E4939608740193BA
:101A93009618400FE49366700808740193661870F3
:101AA300007019A3A3C3E49396087401939618A333
:101AB300A3400DD0E0D0E0D0E0021A79A3A3A3A302
:101AC300A3A3D0E022C0E0C0F088F0E493667008DE
:101AD3000874019366187000A8F0A3A3700BD0F0EC
:101AE300D0E0D0E0D0E0021A79A3A3D0F0D0E02276
:101AF40074F512180CEAFEEBFFEE2434F8EF340010
:101B0400F988088909EE2435121C2CF8EE243712C2
:101B14001C2CF50AEC850AF0A4FCAAF0850AF0ED69
:101B2400A42AFDE82CF8E43DF97A257B001216BEC0
:101B3400EA850882850983F05407F87401B8000225
:101B44008004C333D8FCC0E0E0131313541FF8EE31
:101B540028F8EF3400F9E8245DF582E93400F583D0
:101B6400D0E0F8E0586008850882850983801DEE7E
:101B74002436121C2CF5F0EA84A8F0EE28F8EF3491
:101B840000F9E82438F582E93400F583E0F97F04AC
:101B94000218B874F512180CEAFEEBFFEE243412A6
:101BA4001C2CC0E0EE2435F582EF3400F583D0E040
:101BB400F08E828F83A3A3A3A3A3E0FAA3E0FB8EFA
:101BC400828F83A3A3A3A3A3A3A3E0FCA3E0FDECC0
:101BD400C39AF50AED9BF50BEE2480F508EF34006B
:101BE400F509850882F583E06401702BEE2481F504
:101BF40082EF3400F5831219CA121C3574021217CD
:101C04005FE960137CFD7D04EEFAEFFB120B948513
:101C14000882850983E4F0AC0AAD0BEEFAEFFB12FF
:101C24001AF4122188021B92F582EF3400F583E046
:101C340022C082C083851882851983E0F8A3E0F965
:101C4400C3EA9CEB9D5012C3EC98ED994019C3EA8A
:101C540098EB99501279018010C3EA98EB9940F5FA
:101C6400C3EC98ED9950EE7900D083D08222EAC378
:101C74009CFAEB9DFB2200008521878522C622C0A9
:101C8400E074EF1218F8759B00906182E0A2E640C0
:101C940003021D44E591A2E64003021D447591BF71
:101CA4009003C2E064057008120D32120D3E8003E9
:101CB400120D38752100120DA4E99003C3F07900C8
:101CC400120D98120AFE7A017B009003C1E0F9120A
:101CD400106E907803E064426003021D8D90055FEE
:101CE400E014F06003021D8DC2AF121CF100782ACB
:101CF400D0E0F618D0E0F6E59F5407F9700590900F
:101D040063800390905F7808121619E9C4C0E078E4
:101D140029E65508F50808E65509F509740B78080D
:101D2400121727D0E02508F8906270E0A2E740F887
:101D3400E8C333906272F0906270E0D2E0F08049C0
:101D4400E0A2E55024E591A2E5501E7591DF9003D1
:101D5400C2E0640D70139003E4E004F064287002A0
:101D6400E4F07A00E0F9120E16906181E0A2E350EB
:101D740009E5E9A2E3500375E9F7A3E0A2E75009F6
:101D8400E591A2E7500375917F7F04021957C0E0E3
:101D9400C0D0C082C083906183E0A2E05009E5BF57
:101DA400A2E0500375BFFEE0A2E15009E5BFA2E145
:101DB400500375BFFDE0A2E25009E5BFA2E2500363
:101DC40075BFFBE0A2E35009E5BFA2E3500375BF72
:101DD400F7E0A2E45009E5BFA2E4500375BFEFE0C9
:101DE400A2E55009E5BFA2E5500375BFDFE0A2E616
:101DF4005009E5BFA2E6500375BFBFD083D082D09F
:101E0400D0D0E032C0E074F21218F8E5A7A2E45092
:101E14000FE5A1A2E4500953A7EF75A1EF121E5CD0
:101E2400E5A7A2E5500CE5A1A2E5500653A7DF758E
:101E3400A1DFE5A7A2E15009E5A1A2E1500375A144
:101E4400FDE5A7A2E2500CE5A1A2E2500653A7FBD0
:101E540075A1FB7F0102195774F812180C75210142
:101E64009003C2E0640670077A007B00120D1AA288
:101E7400AFE433FED2AF9003C8E0640170187A2057
:101E84007B009003C1E0F91210F27A207B009003EA
:101E9400C1E0F9121074906182E0D2E6F090055E20
:101EA400E0602185C62280169003C7E064017008B3
:101EB400E5C654F84405F5C653BEFC121C7C7401F7
:101EC400652160E4EEA2E092AF7F010218B8000041
:101ED4008E238F24858228858327851882851983FC
:101EE400E0CEA3E0CF852882852783EBC9EAC8ED3D
:101EF400CBECCA75F010C3E833C8E933C9EA33CA76
:101F0400EB33CBC3EA9EF526EB9FF525B35004AB28
:101F140025AA26EC33CCED33CDD5F0DAAE23AF24AD
:101F24002274F112180C8A088B098C0A8D0B740F19
:101F3400121794780C12161990903778081215F32A
:101F4400909037780C1215F37808790C12142B50F2
:101F5400157808790C1215CB909003780812144B5D
:101F6400401579018013780C79081215CB909003F1
:101F7400780C12144B40EB79007F080218B874ED0A
:101F840012180C8A088B098C0A8D0B74131217947F
:101F9400780C12161990903778081215F390903730
:101FA400780C1215F3780C790812142B4011780868
:101FB400790C1215CBAA08AB09AC0AAD0B802275BB
:101FC40010007511007512007513017810790C1248
:101FD40015CB78107908121592AA10AB11AC12AD7A
:101FE400137F0C0218B890903778081216198A8259
:101FF4008B8378081216067F040218B874F5121839
:102004000C8C828D8378081216198A828B83780847
:102014001215DF122054C3E098F0A3E09912204671
:10202400401E90907778081216198A828B8378085C
:102034001215B88E828F83E02420F0A3E0344EF092
:1020440080A4F08E828F83C3E09420A3E0944E2278
:10205400EA2404F8EB3400F9E8FEE9FF8C828D836E
:10206400A3A3A3A3E0F8A3E0F98E828F832274F5DF
:1020740012180CE9FE900514E0FAA3E0FBEEC3335A
:10208400F8E433F974FA28F582748E39F583E02A7A
:10209400F508A3E03BF50978081219B39090731280
:1020A4001637121ED4740212175F8A088B098C0A21
:1020B4008D0B7410780812155AAA08AB097F040214
:1020C40018B874F112180C8A0C8B0D8C0E8D0F74C9
:1020D4000F121794E0FAA3E0FB7411121794E0F5C1
:1020E40008A3E0F5097413121794E0FEA3E0FF7847
:1020F400081219B3EA2401F508EB3400F509E4F5F4
:102104000AF50B780C790812146A908FFF7808127C
:102114001619780C790812146AAA0CAB0DAC0EAD22
:102124000F121ED4740212175F8B09EA450960046A
:102134007A0180027A00EC2AFCED3400FDECF8ED23
:10214400F97A717B021216BE88088909E4F50AF54A
:102154000B8E828F837808121628ECF8EDF97A71C9
:102164007B021216BE8A088B09740578081217368A
:102174008E828F83A3A3A3A3E508F0A3E509F07FD0
:10218400080218B8C082C083E9906000F0D083D000
:102194008222C0E074F21218F8A2AFE433FED2AF88
:1021A400C2C0E5D1A2E4500653D1EF1212CCEEA284
:1021B400E092AF7F01021957C0E074F21218F8A23E
:1021C400AFE433FED2AFE589A2E1500312123675B3
:1021D4008900C2C5EEA2E092AF7F01021957C0E0A8
:1021E40074F21218F8A2AFE433FED2AFE58BA2E08A
:1021F4005003121236758B00C2E880D8C0E0C0D0FC
:10220400E8C0E0E5A8D2AFC2C7A2E792AFD0E0F839
:10221400D0D0D0E032C0E0C0D0E8C0E0E9C0E0C037
:1022240008C009C082C083A2AFE433F9D2AF9009D9
:10223400E0E0F8A3E0687008539AFBA374018026D9
:10224400C2E99009E0E0F50874012508F0746025FE
:1022540008F58274093400F583E0F5C19009E0E0E3
:10226400C394804002E4F0E9A2E092AFD083D0822C
:0F227400D009D008D0E0F9D0E0F8D0D0D0E032D7
:10228400FFFFFFFFFFFFFFFFC082C083E9900B78D1
:10229400F002251074F71217A0E99002E0F07C1800
:1022A4007D037AFF7BFF1208169002E174FFF0A30E
:1022B400F0A3E4F0A3F0790512079E9002E0E0F9A0
:1022C4001206C67A347B081209F602321E74F4121E
:1022D40017A08A088B09EB548060309002E0E0F983
:1022E4001210568A0A8B0BAE0AAF0BEE4F60138E98
:1022F400828F83E064B070031207B6EEFAEFFB122C
:102304001044AA08E5096480FB80047A007B00027B
:1023140024DF74F21217A074FC121749EAFEEBFFD3
:102324007412121794123705EE4F70030223B97416
:1023340002121794EEF0A3EF12271AECF0A3ED1299
:10234400271AAA82AB831206C0E9F50A706AE50867
:10235400450960648E828F831236EBEE4F60567AA5
:10236400067B001210AA8A0C8B0DA80CA90DE84953
:102374007005750A13804188828983E41223C6EEAE
:10238400F0A3EF123716E508F0A3E509F09002E692
:1023940012244D9002E670051231C8801B1231B62A
:1023A4008003EAFCEBFD8C828D8312244D70F38C48
:1023B400828D8380E3750A02A90A740412175F02EE
:1023C4003905F0A31236BCA32274F21217A0890AAD
:1023D400E975F017A4FEAFF09002E5E4F09002E393
:1023E40012244D600A1210B09002E3E4F0A3F0EE60
:1023F400FAEFFB1210AA8A088B09EA4509602FEE4E
:10240400FCEFFD790012102C9002E3E508F0A3E53F
:1024140009F07B008008122437E4F0A3F00BEBC32F
:10242400950A40F2E50A9002E5F0790080027913FA
:10243400023905EB75F017A4F8A9F09002E3E0283F
:10244400FAA3E0398A82F58322122E5AEA4B2274C7
:10245400F41217A0740C1217941236E0FEE9FF75FB
:102464000800750900800CE5082401F508E5093425
:1024740000F509C3E5089CE5099D503285080A85E5
:10248400090B7403780A121736EA250AF8EB350BA0
:10249400F988828983A3A3A3A3A3A312329DEE6523
:1024A4000A7003EF650B70BFE8FAE9FB80047A0059
:1024B4007B00802774F41217A07900EAA2E0501B75
:1024C4007508DC75098F78081219B37C047D007ACD
:1024D4007A7B0B120798740212175F7F040218723A
:1024E400C082C0839002E6122517601C888289830B
:1024F400A3A3E06A7003A3E06B8882898370E8A3D6
:10250400A3A3A3122E5680047A007B00D083D0822A
:102514000201221239EBE8492274EE1217A074FC6E
:10252400121749EAFEEBFF851882851983E4F0A3AC
:10253400F0EE24021231A8EE24051236C3EE240470
:10254400F50EEF122ACFE024FE603924FC60462405
:10255400FE605224FE605E24FE700302263024FED8
:10256400700302269424FE70030226A324FE700343
:102574000226B224FC70030226C124FE7003022644
:10258400D002270D9002FF7417F0A3E41227221241
:10259400043E02270D851882851983AC82AD83120F
:1025A40007BC0226DD851882851983AC82AD8312AF
:1025B40007C20226DD850C08850D097402121794E2
:1025C400AC82AD83850882850983122E561206E4F7
:1025D4008A0C8B0DAC0CAD0DEC4D603BE4F50CF5A9
:1025E4000D780C1219B3750CFF750D02780C1219C5
:1025F400B3750C00750D03780C1219B37408121717
:10260400941219CA123B6712175FE9F50C700B128A
:102614002E4C120456800F750C018508828509839F
:102624001227101231C8850C080226E07402121712
:1026340094AC82AD83850C82850D83122C21603C81
:10264400850C82850D83A3A31219CA7510FF751119
:102654000278101219B3751000751103781012194D
:10266400B374081217941219CA123B6712175FE960
:10267400F509700B122E4C12045C800F750901854C
:102684000C82850D831227101231C8850908804CED
:10269400851882851983AC82AD831207C8803A8578
:1026A4001882851983AC82AD831207CE802B8518DE
:1026B40082851983AC82AD831207D4801C8518826D
:1026C400851983AC82AD831207DA800D8518828563
:1026D4001983AC82AD831207E0E9F508E5086029A7
:1026E4008E828F83A3E06414601F850E82850F831E
:1026F400E09002FF12271A1239E79003001231C842
:10270400E508A31227221204380230B71239EB85E8
:10271400188285198322F085188285198322F07C1A
:10272400FF7D02850A82850B83122E5A2274EE12D3
:1027340017A074FC1217498A0A8B0B8C0E8D0FEAB2
:102744002405F508EB3400F5097C157D0079007A41
:10275400FF7B0212102CE5082402F50CE509123661
:10276400C685188285198385821085831178101295
:1027740019B3850882850983A3A3A3A3122C181275
:1027840019B3E5082405F510E5093400F5117810AE
:102794001219B3850C82850D83122F6D1206DE7417
:1027A4000612175F8A108B11AE10AF11E50A2402CE
:1027B400F50AE50B1231ABEE4F70030228EF8017D8
:1027C4007402121794122E5688828983EAF0A3EBBE
:1027D400F09002FFE004F09002FFE0C39405400390
:1027E4000228EFE4F510F51178101219B37510E80A
:1027F40075110278101219B37510E9751102781069
:102804001219B374061217941219CA7910EEFCEF58
:10281400FD123B6912175FE9705E850882850983A2
:10282400A3A3A3A3A3A3A3E0F89002E8E0687048DD
:10283400122C181219B37CE97D02E5082408FAE584
:10284400093400FB121026740212175FE960298E06
:10285400828F83A3A3A3A3122E569002FFE0F51048
:102864007402781012173674002510F5827403353B
:1028740011F583EAF0A3EBF0740212179485821029
:1028840085831178101219B374021217941219CA9D
:10289400850C82850D83122E7C12175F8A108B1192
:1028A400AE10AF119002FFE0F510751100740278BC
:1028B4001012173674FF2510F874023511F9888246
:1028C4008983A312244D70030227BBE8240308085C
:1028D40008E93400F9EE4F60030227C48882898333
:1028E40074FFF0A3F09002FFE004F09002FFE060B8
:1028F4000A122E4C12044A7900800B85088285093D
:10290400831231BF790A0230B774EA1217A074FE39
:102914001217498C128D13EA2405F50CEB123B5166
:102924001236EF750800750900EA2402F510EB343D
:1029340000F51185188285198385820A85830B78B1
:102944000A1219B3850C82850D83A3A3A3A3122AAB
:10295400E51219B3E50C2405F50AE50D1231AB783F
:102964000A1219B3850C82850D83122AE91206DE38
:10297400740612175F8A0A8B0BEA450B7003022A4E
:102984008AEA2404F50EEB122ACF1236EF8A828BE0
:1029940083A3A3A3E0F9851082851183122E6060BE
:1029A40003022A8AE4F514F51578141219B3751480
:1029B400E875150278141219B37514E975150278BF
:1029C400141219B374061217941219CA7913AC0AA3
:1029D400AD0B851082851183123B6F12175FE9F5E9
:1029E400096003022A8A9002E8E0F8E5087009E029
:1029F4002402900300F08014900300E0FCE8240219
:102A0400FAE43400FBEA6C7001EB707E850882AA5C
:102A140082122C0F9414122C07506B850E82850F92
:102A240083E0C0E074012A122AC6D0E0F0050885CC
:102A34000E82850F83A3E0C0E085080A7401250A8D
:102A4400122AC6D0E0F005089002E8122AE512190D
:102A5400B37CE97D0285080A7401250A122AD91279
:102A6400175F9002E8E02508F50874FF6E700374A0
:102A7400FF6F6012EE24010EEF3400FFE508C394EB
:102A8400145003022937E5086013122E6A85108258
:102A9400851183122E5612045079008014E50970B2
:102AA4000375090A851282851383EEF0A3EFF0A95A
:102AB40009740212175F7F0E02187285080C7401E4
:102AC400250CF58274033400F583223400F50F8558
:102AD4000E82F58322FA74033400FB12101474027C
:102AE4002212372522A3A3122AEF221231B6FDEEB9
:102AF400FAEFFB2274EE1217A074FE1217498C0E23
:102B04008D0FEA2405F50CEB1236C6750B00900206
:102B1400FFE4F0F50AEA2402F508EB3400F5098035
:102B2400449002FFE0FA9002E8E0F8122C0F9417A8
:102B3400122C07400D9002FFE0F87416C39890021F
:102B4400E8F0122C181219B37CE97D0274002AFAF9
:102B54007403122ADC12175F9002E8E0F89002FF77
:102B6400E028F0050AE50C2416F582E50D122ACAC0
:102B7400E0F8E50AC39850749002FFE0C39416503D
:102B84006BE50AC333F8E433F9E50C28FEE50D39A7
:102B9400FF851882851983AC82AD838E828F831260
:102BA4002C217008750B011231BB8050E4F510F52F
:102BB4001178101219B37510E875110278101219F2
:102BC400B37510E975110278101219B3740612174F
:102BD400941219CA7916850882850983123B6F12EB
:102BE400175FE9F50B7003022B2580BB7CFF7D0288
:102BF400850882850983122E56120462A90B740279
:102C04000230B9E99400C365D03322EA28F8E434E9
:102C140000F9E822E0F5107511007810221230AEA8
:102C24008A108B11AC10AD11EC4D2274EA1217A06E
:102C340074FC1217498A0C8B0D8C128D13EA24052F
:102C4400F50AEB1231AB750800750900E50A240298
:102C5400F510E50B3400F511740212179485820EF9
:102C640085830F780E1219B3850A82850B83A3A37B
:102C7400A3A31236CB1219B3E50A2405F50EE50B0E
:102C84003400F50F780E1219B38510828511831262
:102C940031B1122E501206DE740612175F8A0E8BA3
:102CA4000FAE0EAF0FE50C2402F50EE50D3400F562
:102CB4000F80388882898374FFF00508122ABF7454
:102CC400FFF005089002E8E0F50C750D00780C1291
:102CD40019B37CE97D0285080C7401250C122AD9EC
:102CE40012175F9002E8E02508F508EE4F60278E82
:102CF400828F83A3A3A3E0F9850E82850F83122E0E
:102D040060EE24041236C3E96027850C82850D83A6
:102D1400122E421231C8E5087003022E28122E6AC0
:102D2400850E82850F83122E561204687900022EB6
:102D34003DE4F514F51578141219B37514E87515F6
:102D44000278141219B37514E9751502781412195E
:102D5400B374081217941219CA7911EEFCEFFD85A9
:102D64000E82850F83123B6F12175FE9F509709A83
:102D7400850882AA82EA9002E87009E0240490039C
:102D840000F08025E0F8900300E0F514E82404FC4A
:102D9400E43400FDEC65147001ED7081122C0F9485
:102DA40012122C074003022D21850C82850D83E02D
:102DB400C0E074012A122AC6D0E0F00508850C820E
:102DC400850D83A3E0C0E0122ABFD0E0122E8585D2
:102DD400820C85830D780C1219B3740412179412A3
:102DE40019CA851082851183122E7C12175F8A0CF2
:102DF4008B0DAE0CAF0D85080C7401250CF8740313
:102E04003400F9EE4F7003022CB7851882851983BC
:102E1400E088828983122E85A3E0C0E0122ABFD005
:102E2400E0022CC5E509700375090A850A82850B41
:102E340083122E421231C8A9097404022AB7123926
:102E4400EB851282851383227CFF7D02850A8285AD
:102E54000B83122E5A22E0FAA3E0FB22122E5A12FE
:102E640006CCE9F50922900300E0F5F0E50884902A
:102E740002FFF07CFF7D0222122AEF1206EA74049C
:102E840022F005088518828519832274EC1217A094
:102E940074FE1217498A088B098C0E8D0FEA2405DB
:102EA400FEEB3400FF123098EE24181236C3EA45C4
:102EB4000B7003022F3B1230815029122F608A10AD
:102EC4008B11EA4511606B7912AC0AAD0B8508824F
:102ED400850983122E5685108285118312179EE967
:102EE400F50A7058E4F50AF50B780A1219B38E82C4
:102EF4008F83A3A3E0F50A780A1219B3EE24031210
:102F040031A8780A1219B38E828F83122F6D12089A
:102F140004740612175FE9F50A7021850C82850D89
:102F240083E0701F850882850983122E5612046E71
:102F34008011750A0E8009750A018004E50A600390
:102F44001231BB850C82850D83E060047900800218
:102F5400A90A740212175F7F0C0218728518828501
:102F64001983122E5A1207F2221231B6FD850882F5
:102F7400850983122E5A2274EE1217A074FE1217BA
:102F8400498A088B098C0C8D0DEA2405FEEB34006C
:102F9400FF750E00123098EA450B700302305F1281
:102FA4003081502C122F608A0E8B0FEA450F604A35
:102FB4007912AC0AAD0B850882850983122E5685D9
:102FC4000E82850F8312179EE9F50E6003023062AC
:102FD40085088285098312329DAA0AFB1230737018
:102FE400147AFF7BFF123073606C88828983E50A50
:102FF400F0A3E50BF0750A008007750E0E805F05DF
:103004000A9002E5E0FAE50AC39A504AE50A75F027
:1030140017A4FAABF088828983A3A3E02AFAA3E079
:103024003BFB8A828B831231B1EC4D70D2750A1747
:10303400750B00780A1219B3EEFCEFFD121014742C
:103044000212175FEEFCEFFD850882850983122EBC
:10305400561204748014750E098003750E0112391A
:10306400E3850C82850D831231C8A90E022C02124D
:1030740007E68A108B11A810A911E84922E5082453
:1030840002F508E5093400F5098A828B83A3A3A31A
:10309400E0A2E522851882851983AC82AD838E82F5
:1030A4008F831230AE8A0A8B0B22E0FAA3E0FB1264
:1030B40006E422740412175F7F0A02187274EC1279
:1030C40017A08C108D11EA2405F50CEB1236C67589
:1030D4000F00EA2402F50AEB1231AB850A82F5836C
:1030E400122E56123BF5700302319D750E0080714D
:1030F400850C82850D83E06401704F8E828F83A3DB
:10310400A31219CA8E828F83A3A3A3A3E0F5127519
:10311400130078121219B3EE2405F512EF3400F5FA
:103124001378121219B3122E5012080474061217CF
:103134005FE9F50F6014850C82850D83E4F0123984
:10314400E38510828511831231C87C177D007900D4
:10315400EEFAEFFB12102C8E828F83E4F0A3F005BD
:103164000E9002E5E0F8E50EC398501EE50E75F0EA
:1031740017A4F8A9F0850882850983A3A3123B5BF1
:103184001231B1EC4D60030230F485088285098365
:1031940074FFF0A3F0E50F7006122E5012047AA902
:1031A4000F022F5BF50AEF3400F50B22A31231B6A0
:1031B400FD22E0FCA3E0228E828F831239EB850E80
:1031C40082850F83E8F0A3E9F022C082C0839002D5
:1031D400E1E06A7003A3E06B70067AE17B0280048D
:1031E4007A007B0002251074F71217A07F00EF7598
:1031F400F003A4F8A9F0EC28F8ED39F98882898362
:10320400E06A7003A3E06B7006E8FAE9FB800B0F39
:10321400EFC3940240D87A007B007F0102187274D5
:10322400F61217A01237D470067A007B008007A329
:10323400A3A3A3122E5602389574F21217A0E9FE26
:10324400740E12179412329D7410121794123705CB
:103254008C828D83E06402703BA31239E7888289F3
:1032640083E0F50CA3E0F9A80C74026870037429D8
:10327400697021750C02750D00780C1219B3780869
:103284001219B3780A1219B3EEF912082874061247
:10329400175F80027901023905E0F50AA3E0F50B16
:1032A4002274E81217A074FB121749E98518828565
:1032B4001983F08A168B178C0E8D0F741F121794B6
:1032C400123705742112179412329D742312179425
:1032D4001236EF7510008C828D83A3A3A3E0A2E4C1
:1032E400502A741D121794122F668A828B83E582EA
:1032F400458370030233B1790AAC0EAD0FAA16AB45
:103304001712179EE9F51060030233B4850E828507
:103314000F83E06402600302366AA31239E785086A
:1033240082850983A3858212858313E50E2406F51D
:103334000CE50F1236C688828983E0FAA3E0F9EA25
:103344002400F514E439F5157814121A3D0100002F
:1033540028012879330700022850340328C0330099
:10336400297A350129A2350229493503297A3504F8
:10337400290B366A36EE4F703E850C82850D83121A
:1033840036E0FAE9FB8A828B83E0850A82850B8327
:1033940012371C1219B38A828B83A31231B6FDAA89
:1033A40008AB09121014740212175F800375100E13
:1033B400A9107405023B4975100B80F4EE4F70F7A9
:1033C400850A82850B837401F01236F5850882859F
:1033D4000983F07C007D00850E82850F83A3A3A35F
:1033E400A3E02401FAA3E03400FB1206E4EA4B60F4
:1033F400418A828B83E02402F8850A82850B83E06C
:1034040028F0EA2404F8EB3400F988828983E08503
:10341400128285138312372E12371C1219B38A8233
:103424008B831231B0E5082403FAE5093400FB026A
:1034340033A7850A82850B83E02404F07C047D0095
:103444007900AA12AB1312102C0233B4EE4F6003AE
:103454000233BB1236F5FEA3E0FF850A82850B8397
:103464007404F0EE850882850983F0EF8512828565
:103474001383F07403121794AC82AD83EEFAEFFB5E
:103484001237C270030235268A828B83A3A31236B5
:10349400EB740112179485820E85830F780E12192E
:1034A400B374051217941219CA7CFF7DFF1206EA41
:1034B400740412175F8B0FEA450F7033850C8285F5
:1034C4000D831236CB1219B3850C82850D83A3129A
:1034D40019CA7C027D007ABF7B901205167404120F
:1034E400175FE9700A740112179474FFF0A3F08E49
:1034F400828F83E064027034750C02750D00780CC1
:103504001219B38E828F831231B0E5082404FAE5D0
:1035140009122ADC12175F850A82850B83E02402D4
:1035240080097401121794EEF0A3EFF074011217DE
:10353400941236DCF07401121794A31236D4A3A3A8
:10354400A3F00233B4EE4F60030233BB850C8285D3
:103554000D831231B1AA16AB1712081C850A828595
:103564000B837402F0EA850882850983F085128250
:10357400851383EB80CBEE4F60030233BB1236F529
:10358400F8A3E0F9850A82850B837402F0E88508C4
:1035940082850983F0E985128285138380A3850CD3
:1035A40082850D83122E5612100EEAFC8C82A8829C
:1035B400C39EE49F404BE86E7001EF70047C008072
:1035C4001F851882851983E0FAEE2AFAEF3400FB8E
:1035D400C3EA98EB94005003E08004EECCC39CFC57
:1035E400EC850A82850B83F08C0A750B00780A122D
:1035F40019B3850C82850D83E02EFCA3E03F0233D2
:10360400A27510070233B4EE4F60030233BB850C7E
:1036140082850D831239E7850A82850B837407F04E
:10362400888289831236D41236BCE08512828513CF
:1036340083F0E82402FAE93400FB8A828B83123691
:10364400D412370D1236DCA31237161236E5F0E821
:103654002405F8E93400F9888289831236E5A31237
:10366400372EA3023542741D1217941237CD7003FE
:103674000233B11239E7880C890DE8450D70030255
:1036840033B18E108F1178101219B3780A1219B34E
:1036940078081219B37406121794E0F9AC0EAD0F42
:1036A400AA16AB17850C82850D8312179E74061219
:1036B400175FE9F5100233B4F088828983A322F5F9
:1036C4000CEF3400F50D22E0F50E750F00780E2294
:1036D400E085088285098322123735221239EBE806
:1036E40022123735A3A322A3A3A3A3E0FEA3E0FFE2
:1036F40022850C82850D83E0F8A3E0F5838882E0BF
:1037040022E0F508A3E0F50922A3A3F08A828B83C3
:10371400A3221223C8A3A322F08A828B8312372503
:1037240022E0F50A750B00780A221236BC123735EE
:1037340022E0850882850983A3A32274EE1217A0D0
:1037440074FE1217498A0A8B0BECFAEDFB741412FF
:103754001794E0F510A3E0F5117416121794E0FE27
:103764007418121794E0F50EA3E0F50F85188285FE
:103774001983AC82AD831237C2603E8518828519E5
:10378400831237CD602FA3A3123705E508450960DE
:1037940024780E1219B378101219B3EEF9AC0CADEB
:1037A4000DAA0AAB0B85088285098312179E74043F
:1037B40012175F8006790E80027901022C0212062C
:1037C400E48A0C8B0DEA450D22122E5A1237D422AC
:1037D4001207B08A828B83E58245832274F612171E
:1037E400A074FE121749740C1217941236E085184F
:1037F40082851983F07401121794E9F0E4F508F551
:103804000978081219B375080278081219B37404F8
:1038140012179485820885830978081219B312084F
:1038240004740612175F740212175F806474F7122F
:1038340017A0EAFEEBFF89087C187D0312081CEA36
:103844005402600BA908EEFAEFFB1206D880027945
:103854000102321E74F61217A074FF6A700374FF1B
:103864006B701C7B00EB75F003A4F8A9F0EC28F84E
:10387400ED39F912389A0BEBC39402501480E61216
:1038840007EC8A088B09A808A909E84960031238DB
:103894009A7F020218728882898374FF1223C6E415
:1038A400F02274F61217A01207EC8A828B83E58249
:1038B40045836006A3A3E0FA80027A007B0080D1EE
:1038C40074F21217A08A088B09ECFEEDFF740E1235
:1038D4001794E0F50A12390A701CEEFCEFFD7AFF2A
:1038E4007BFF12390A70047911801688828983E576
:1038F40008F0A3E509F088828983A3A3E50AF07997
:10390400007F060218721207EC8A0C8B0DA80CA912
:103914000DE8492274EE1217A0EAFEEBFF8C088D25
:1039240009890C74121217941239E774141217943B
:103934001231B17416121794122E56750D00EC4DF7
:1039440060030239DB7402650C60030239D6888295
:1039540089831231B6F9EC2400F50EE439F50FEA47
:10396400F4F8EBF4F9EC58F8E50F59F9E849705D0F
:10397400E5082406F8E5093400F9880A890B8882E9
:10398400F583122AEB12081C8A108B11E50E6510C0
:103994007004E50F65116042780E1219B3850A822E
:1039A400850B83122AEB120822740212175FE9F5C1
:1039B4000D7027780E1219B3850882850983A3A395
:1039C400122AE912083A740212175F800D750D80ED
:1039D4008008750D0D8003750D0BA90D0230BC8E8A
:1039E400828F831239EB22E0F8A3E0F92274E81203
:1039F40017A074E7121749851882851983EAF0A382
:103A0400EBF08C168D17890E7431121794E0F512B1
:103A1400A3E0F5137433121794E0F514A3E0F5153D
:103A24007435121794E0F50F750800750900E5095F
:103A340075F003A4F8A9F0851882851983123B5BFD
:103A4400E0F47003A3E0F47003023B39EE2402F5C2
:103A54000CEF123B51E07003023B3985160A8517BF
:103A64000B780A1219B3AC14AD15AA12AB131207D2
:103A7400A4740212175F8A0A8B0BEA450B700302C7
:103A84003B39E4F510F51178101219B374061217C6
:103A94009485821085831178101219B37409121752
:103AA4009485821085831178101219B3851282854A
:103AB4001383A3A3A3A31219CA7914AC0AAD0B8E62
:103AC400828F83123B6F12175FE97069850A8285C2
:103AD4000B83A3A3A3A31239E77402121794123120
:103AE400C8850C82850D83E0A2E05018A90E7402EB
:103AF400121794AC82AD838E828F83122E561206D7
:103B0400FCE94208850C82850D83E0A2E15026E59C
:103B14000FF50A780A1219B7A90E7403121794AC98
:103B240082AD838E828F83122E561206F674011292
:103B3400175FE942080509E509C394025003023AF4
:103B440032A908741912175F7F100218723400F535
:103B54000D850C82F58322E028FEA3E039FF8E82D6
:103B64008F83227916850A82850B83122E5A1207B7
:103B7400FE74082274F21217A0EAFEEBFF890B749C
:103B840001650B600E7402650B70637901120A14EF
:103B9400E9705BEEFAEFFB123BF56047750A0080B3
:103BA4000B7C177D00790012102C050A9002E5E0C9
:103BB400F8E50AC3985021E50A75F017A4F8A9F0AE
:103BC400850882850983A3A3E028FAA3E039FB8A48
:103BD400828B8312251770C985088285098374FF37
:103BE400F0A3F07C187D03EEFAEFFB1208160239FD
:103BF400051207E68A088B09EA45092274F21217AE
:103C0400A08A088B09ECFEEDFF740E121794123291
:103C14009D900B78E0F4603D7A097B0012103EEA37
:103C24004B60328A828B8374B1F0A3E412370FA302
:103C340012370DA3E508F0A3E509123C5CEEF0A3EE
:103C4400EF123C5CA3A3E50AF0A3E50BF0900B781C
:103C5400E0F912104A023905F08A828B83A3A3A3E8
:103C6400A3A32274F41217A0E9FF7E008A088B092B
:103C740078081219F700040D183E9A3CB63CCB3C68
:103C8400E03CF53C0A3D263D3F3D513D7F3DA13D95
:103C9400BD3DD93DF73D74016F70128C828D83E078
:103CA400C394035008E0900C64F0023E367E180280
:103CB4003E3674026F70F68C828D83124574900CBC
:103CC40065E8F0A3E980E274016F70E18C828D8372
:103CD400E0C3940250D7E090078180CD74016F70E7
:103CE400CC8C828D83E0C3940550C2E0900782801F
:103CF400B874016F70B78C828D83E0C3940250ADA9
:103D0400E090078380A374106F70A27508108E0969
:103D140078081219B37A847B0712493812175F02A4
:103D24003E3674016F70868C828D83E0C3940240AA
:103D340003023CB1E0900794023CAD74016F600350
:103D4400023CB18C828D83E0900C68808D74046F8A
:103D54006003023CB190907378081216198D838C1D
:103D640082780812143B4003023CB18C828D83128A
:103D74001637900796121643023E36EF6003023C54
:103D8400B1120684E9700E1211A0795012136E124A
:103D94001194023E369008297401023CAD74016FFF
:103DA4006003023CB18C828D83E0C3940240030221
:103DB4003CB1E0900795023CAD74016F6003023C96
:103DC400B18C828D83E0C3940A4003023CB1E0903D
:103DD4000C67023CAD74016F6003023CB18C828DB0
:103DE40083E024F9C3940A4003023CB1E0900C69D7
:103DF400023CAD74016F6003023CB1900828E0F806
:103E04008C828D83E0900828F0E87026E0640170CD
:103E140021023D93C3EA9426EB9400501374026F7D
:103E2400700E8C828D8312456E120522E9FE80028B
:103E34000E0EEEF9023E40740E12175F7F04021854
:103E44007274F01217A074CC1217498C0A8D0B747B
:103E540044121794E0FE7420121794AC82AD83755B
:103E6400838F7582E2740612165C7420121794AC68
:103E740082AD83121146E9F508C3940A4003023F58
:103E8400A975F006E9A4F5097426121794AC82AD5D
:103E9400837A0E742025091249F0700974321217BE
:103EA40094E0FF80027F00900C64E064027004746C
:103EB400018001E4F50D780D1219B7EEFDEFFCA9B0
:103EC40008AA0AAB0B1211CA740112175F7C147D85
:103ED400007900740C121794AA82AB8312102C740C
:103EE4000C121794AC82AD837A10742425091249FC
:103EF400F070377C1079FF740C12179412471D7000
:103F040029741C121794AC82AD837A047425250994
:103F1400F9121368740C121794AC82AD83EFA2E00B
:103F2400E433F9AA0AAB0B1205AC85188285198310
:103F3400AC82AD837A0C747025081249F0705585F3
:103F44001882851983AA82AB83121176750800E55D
:103F54000875F003A4F8A9F0851882851983E58211
:103F640028F8E58312475912456EEC4D601D88828E
:103F74008983A3A3E0F50E750F00780E1219B3AA76
:103F84000AAB0B12080A740212175F0508E508C38E
:103F9400940440BBEFA2E1500C900780E0F9AA0A18
:103FA400AB0B12081074046E702A900C64E0640267
:103FB4007022900794E060047A0180027A009007EE
:103FC40081E06004780480027800E84AF9AA0AAB28
:103FD4000B12066C7900743412175F7F0802187292
:103FE40074F01217A0EAFEEBFF8C088D09750A0A1B
:103FF400E9600C14600914602E14607F02408A1278
:104004001188E9F50AC3940A507CE50845096076ED
:10401400750E06750F00780E1219B3EEFCEFFD1243
:10402400493412175F805F750B00750E06750F001B
:10403400780E1219B3EEFCEFFDE50B75F00EA4F843
:10404400A9F074A228FA740739FB1210267402121C
:10405400175FE9601B850B0AE50AC3940A5027E53C
:104064000845096021AA08AB09A90A121182801621
:10407400050BE50BC3940A500D80AF12118EE9F5C0
:104084000AC3940A40D9A90A023FDF74F41217A0A4
:10409400890875091574FF6A700374FF6B70277EB5
:1040A40000AC087A027B00EEF9121164E960037532
:1040B40009000EEEC3940A40E8E50860497AB87B2B
:1040C40011120A268040120A088A0A8B0BAE0AAF24
:1040D4000BEE4F602E7C007D00EE2405FAEF3400D9
:1040E400FB8E828F83124186500CAC087A027B00CF
:1040F400121164750900E508600CEEFAEFFB121169
:10410400B88003750914A909023E4074F21217A07D
:10411400ECFEEDFF740E12179412456175081574C8
:10412400FF6A700374FF6B7021750900AC0AAD0B54
:10413400EEFAEFFBA90912116AE96003750800059C
:1041440009E509C3940A503580E2120A088A828B71
:1041540083E582458360237C007D00E5822405FAA3
:10416400E5833400FB1241865013AC0AAD0BEEFA22
:10417400EFFB12116A7508008003750814A9080280
:104184004F5FA3A3A3A3E0F9121146E9C3940A2243
:10419400C082C08390079AEAF0A3EBF0900780E016
:1041A400FC7D007A257B00120522900780E0F9123D
:1041B4000786D083D08202012274EA1217A074EC1D
:1041C400121749EAFEEBFFEE240CF514EF3400F568
:1041D40015EE240AF510EF3400F511EE2405F50E62
:1041E400EF3400F50FEE2409F50AEF3400F50BEE79
:1041F4002403F508EF3400F5098E828F83A3A3E02E
:1042040024FA700302452A24FD70030244591470F1
:10421400030242A814601024FD700302442A14709F
:104224000302448E02454812458D604AE0F58388B6
:1042340082124574880C890DE8450D603985148215
:10424400851583E0F50E780E1219B7EE240BF5826E
:10425400EF3400F583E0F9850A82850B8312456EFD
:104264000A0A0AAB09850C82850D8312179E740114
:1042740012175F024548850A82850B831219CA907A
:1042840007961216371205BE740212175FE97003FF
:104294000245487901850A82850B83124D841205F3
:1042A400B80245488E828F83A3858212858313E0EA
:1042B4006003024403850E82850F83E0A2E040037D
:1042C4000244037C0E7D007900851882851983AA37
:1042D40082AB8312102CEE2408F50AEF3400F50BA0
:1042E400850A82F5831245906019750C06750D00D8
:1042F400780C1219B3850A82850B83E02410FCA381
:10430400E0801A124552EA4B7003024548750C06C8
:10431400750D00780C1219B3EA2405FCEB3400FD8A
:104324007402121794AA82AB8312493812175F855C
:104334000E82850F83E0A2E25004D2F08002C2F024
:10434400A2F0E433F8740C121794E048F08510825C
:104354008511831245906015851082851183E024B0
:1043640010F8A3E03400F988828983800390907761
:10437400780C121619851082851183124590600FEE
:10438400851082851183E0F510A3E0F51180067590
:104394001000751100850A82850B83124590600B0D
:1043A400850A82850B831245618006750A00750BA8
:1043B40000780C1219AF78101219B3780A1219B3D5
:1043C4008514828515831219CA8E828F83A31245A0
:1043D40069740A121794AA82AB8312117C740A12AC
:1043E400175F85088285098312457490082AE8F0CE
:1043F400A3E9F07A017B00900780E0F912106E12B5
:10440400458D700302454812457A7003024548857C
:104414001282851383E0FC7901124D7E8E828F8394
:1044240012179E02454812458D7003024548E0F577
:10443400838882A3A3124574890BE8450B70030299
:1044440045488E828F83A3E0FC7902124D7E8882D8
:10445400850B8380CB7C007D00EE2404FAEF3400CE
:10446400FB850882850983E0F9121146E9F8C394B3
:104474000A4003024548AC10AD117A0475F006E811
:10448400A42425F9121362024548900795E0600EB2
:10449400900C67E0F985088285098302429F900C9D
:1044A40064E07004790580ED1245528A0C8B0DA8E6
:1044B4000CA90DE82404F50CE93400F50D8E828F67
:1044C40083A3A3A3A3A3A3A3E0A2E05036E8496077
:1044D40073850C82850D83E0FE6028850A82850B36
:1044E40083E05410701D740E121794AC82AD83E8EF
:1044F4002405FAE93400FBEEF9121146E970047957
:10450400038092AC0EAD0F850C82850D83E0F91209
:104514004D7E1211C412458D602A12457A60257CA5
:1045240000790002441D120684E97018900829E0FD
:10453400640170081211A0900829E4F07950121354
:104544006E121194741412175F7F0E02187285088C
:1045540082850983E0FAA3E0FB120A0822E0F50A47
:10456400A3E0F50B22A3A3A3A3A3E0FCA3E0FD22F5
:10457400E0F8A3E0F922E0F5838882A3A3E0F8A39E
:10458400E0F9E8FEE9FFEE4F2290079AE0F8A3E095
:10459400F9E8492274F41217A074F2121749EAFEDA
:1045A4008C0B75F006E9A42420F50885188285197A
:1045B40083AC82AD837A0E1249F0704A7C061247AE
:1045C400157043740C121794124574E8F509E50B41
:1045D4006005EE42098004EEF45209850982AA823C
:1045E400E86A7001E9601B740C121794EAF0A3E402
:1045F400F0851882851983AC82AD837A0EA90812DE
:104604001362790180027900023E3B74F21217A012
:1046140074E6121749890A8A088B09ECFEEDFF74C7
:104624000C1217941249E360030246C97C0679FF11
:10463400740C12179412471D60030246C974702546
:104644000AF50B851882851983AC82AD837A0C1226
:1046540049F0600302470E851882851983AA82AB4C
:1046640083121176E508450970217C0C7900124704
:1046740017600302470E7C0C7D0079008518828543
:104684001983AA82AB8312102C8061851882851944
:1046940083AC82AD83AA08AB091211708A0C8B0D0E
:1046A400A80CA90DE849702CEE4F60198518828575
:1046B4001983AC82AD837A007B00121170EAF8EBA7
:1046C400F9EA4B70047900804388828983E508F015
:1046D400A3E509F0124795FAEE6A7001EF602BEE3C
:1046E400F04F700888828983E4F0A3F085188285EE
:1046F4001983AA82AB83121176851882851983AC3B
:1047040082AD837A0CA90B1213627901741A024FD9
:104714005C79FF851882851983AA82AB8312109273
:10472400E92274F71217A07F00EF75F003A4F8A92B
:10473400F0EC28F8ED124759E06A7003A3E06B70BF
:1047440006E8FAE9FB800B0FEFC3940440DB7A0020
:104754007B00024A8E39F9888289832274F7121702
:10476400A07E00EE75F003A4F8A9F0EA28F8EB1295
:104774004759E0F4FCA3E0F4FD88828983ECF0A3BC
:10478400EDF0124795F4F00EEEC3940440D5024ABE
:104794008EE82402F582E93400F583E02274EE12F7
:1047A40017A074F4121749EAFEEBFF8C0A8D0B7400
:1047B4001E121794E0F50CA3E0F50D742012179463
:1047C400E0F508A3E0F5097422121794E0F510A3AC
:1047D400E0F511EE4F7005790A0248C6121188E916
:1047E400F50EC3940A4023750F007C0679FFE50F8C
:1047F40075F00EA4FAABF0749C2AFA74073BFB1212
:10480400472170030248D0850F0EE50EC3940A4079
:10481400030248C475F006E50EA4F50FEEFCEFFDA7
:104824007A0E74201248E1E50A450B600BAC0AAD20
:104834000B7A1B74211248E1E50C450D600BAC0C9E
:10484400AD0D7A1B74221248E1E5084509600BACF2
:1048540008AD097A1074231248E1E5104511601B74
:10486400AC10AD117A1074241248E1742412179418
:10487400AC82AD837A0474251248E17C0C7D007906
:10488400FF124FED7A0C7470250EF912136275083D
:104894000E75090078081219B3EEFCEFFDE50E75EC
:1048A400F00EA4F8A9F0749C28FA740739FB124995
:1048B4003812175F900828E060031211D01211BE5D
:1048C400A90E740C12175F7F0A021872050FE50F08
:1048D400C3940A50030247EE750E0A80E3250FF9CC
:1048E4001213622274F41217A074F2121749EAFE2A
:1048F400EBFFE9C3940A5004EE4F70047902802D53
:104904008518828519831249E3F508701E750A0615
:10491400750B00780A1219B37402121794AC82ADA5
:1049240083EEFAEFFB12493812175FA908023E3BE7
:10493400AA08AB0912101474022274F41217A0EA24
:10494400FEEBFF750800750A06750B00780A12194C
:10495400B3EEFCEFFDE50875F00EA4F8A9F0749C25
:1049640028FA740739FB121026740212175FE960E3
:1049740004A908800B0508E508C3940A40C8790A0D
:10498400023E4074F71217A074F0121749EAFEEBC6
:10499400FF750800851882851983AC82AD837A106F
:1049A40075F006E508A424231249F0701F7C101248
:1049B40047157018EEFCEFFD851882851983AA82CD
:1049C400AB8312058EE97004A908800B0508E5087D
:1049D400C3940A40BF790A741012175F024A8EAC5E
:1049E40082AD837A0E75F006E9A42420F9121368C7
:1049F400E92274F71217A0750800E50875F00EA4F3
:104A0400F8A9F0749C28FE740739FFEEFCEFFD7AD8
:104A14000E75F006E5081249ED602C7C067D0079E0
:104A2400FFEEFAEFFB12102C7C067D0079FFEE24DA
:104A340006FAEF3400FB12102CEE240CF582EF344E
:104A440000F583E4F0A3F00508E508C3940A40AA3E
:104A5400900828E060031211D01211BE802C74F764
:104A64001217A07E007F007C0679FFEF75F00EA47C
:104A7400FAABF0749C2AFA74073BFB1247217001CD
:104A84000E0FEFC3940A40DFEEF97F01021872742F
:104A9400F71217A07E00EEF91211A60EEEC3940AC7
:104AA4005003E960F180E374F31217A074CB12177A
:104AB40049E9FF75F006A4F50874202508FE74275B
:104AC400121794AC82AD837A0EEE1249F0600302A1
:104AD4004BAD7C0679FF742712179412471D6003AF
:104AE400024BAD7C0E7D0079FF7427121794AA82C5
:104AF400AB8312102C7C1B7D0079FF740C1217946D
:104B0400AA82AB8312102C7C0C7D0079FF8518825D
:104B1400851983AA82AB8312102C7427121794ACC4
:104B240082AD837A0EEEF9121362E9F509740C1260
:104B34001794AC82AD837A1B7421124BBCFE740CA7
:104B4400121794AC82AD837A1B7422124BBCF50A03
:104B5400740C121794AC82AD837A107423124BBC7C
:104B6400F50B740C121794AC82AD837A1074241272
:104B74004BBCF50C740C121794AC82AD837A04749C
:104B840025124BBCF508851882851983AC82AD8348
:104B94007A0C74702FF9121362E9F8EE450A450B8A
:104BA400450C45084842098003750900A909743574
:104BB40012175F7F050218722508F9121362E922A1
:104BC40074F71217A0E9900780F0121194024A8E2C
:104BD40074F21217A074FB1217498A088B09EB545C
:104BE400807003024C78900780E0F91210568A0A0C
:104BF4008B0BA80AA90BE8FEE9FFE849606CEE24D8
:104C040004F8EF3400F98E828F83E0245060381466
:104C1400600624E1604A804B88828983E070448E78
:104C2400828F83A3A3A3A3A3A3A31219CA8E828FE3
:104C3400831245698E828F83A3A3124D841211526D
:104C4400740212175F801C88828983E0641E7013CB
:104C540079008E828F83A3A3124D8412114C80039A
:104C640012115EEEFAEFFB121044AA08E509648003
:104C7400FB024D79EAA2E04003024D7590082A1226
:104C84004561740312179485820C85830D780C1288
:104C940019B3750C02750D00780C1219B3750CA5B7
:104CA400750D90780C1219B37CFF7DFF7A017B009F
:104CB4001206DE740612175F024D5DE4F50CF50D65
:104CC400780C1219B3740412179485820C85830D21
:104CD400780C1219B3740412179485820C85830D11
:104CE400780C1219B374091217941219CA7902EEC6
:104CF400FCEFFDAA0AAB0B1207FE740812175FE95A
:104D04007035851882851983E0FA7401121794E0CE
:104D1400F9EA2400F50CE439F50DEA450D6018783C
:104D24000C1219B38E828F8312456AAA0AAB0B1236
:104D34001152740212175FE4F50CF50D780C121978
:104D4400B374051217941219CA7CFF7DFFEEFAEFB3
:104D5400FB1206EA740412175F8A0C8B0DAE0CAFBB
:104D64000DEE4F6003024CBFE5086401FAAB098005
:104D7400047A007B007405024F5C850882850983F0
:104D8400E0FAA3E0FB22C082C083900780E0F98AA6
:104D9400828B83A3124D841208100241B6C082C0D4
:104DA4008374FF12174912119AE9C3940285188279
:104DB400851983400474028002740AF0AC82AD83C6
:104DC4007A01790512069C740112175F0241B674C8
:104DD400F21217A074E8121749EAFEEBFF890A8C55
:104DE400088D097C187D007900124FF5EEF0A3EFD1
:104DF400F0900782E0C0E07402121794D0E0F090C3
:104E04000783E0C0E07403121794D0E0F0900C69BB
:104E1400E0C0E07417121794D0E0F07415121794E0
:104E2400E054FEF8A3E0F9900C68E0A2E0E433FA61
:104E3400E84AF87415121794124F6BA2E15004D289
:104E4400F08002C2F0E854FDFAA2F0E43333F8EA49
:104E540048F87415121794124F6BA2E35004D2F061
:104E64008002C2F0E854F7FAA2F0E433F50C750DB1
:104E7400007403780C121736124F64121794124FF1
:104E84006BA2E45004D2F08002C2F0E854EFFAA21C
:104E9400F0E433F50C7404780C121736124F6412D4
:104EA4001794124F6BA2E55004D2F08002C2F0E8CE
:104EB40054DFFAA2F0E433F50C7405780C121736BB
:104EC400124F64121794124F6BA2E25004D2F08076
:104ED40002C2F0E854FBFAA2F0E433F50C74027851
:104EE4000C121736124F64121794E8F0A3E9F090ED
:104EF4000783E0601B750C10780C1219B37C847D59
:104F0400077406121794AA82AB8312493812175FEA
:104F1400900794E06011E50A60097415121794E093
:104F24004402F07801800278007414121794E04867
:104F3400F0900781E0600478048002780074141211
:104F44001794E048F0AC08AD09851882851983AA46
:104F540082AB831205B2741812175F7F06021872AF
:104F6400EA450CF8741522E8F0A3E9F0900C68E027
:104F74002274F31217A074E5121749EAFEEBFF8CB2
:104F8400098D0A7428121794E0F50C75F006E9A44B
:104F9400F87408650A700474228002742128F50BE1
:104FA4007C1B7D007900124FED7A1BA90B1249F18D
:104FB4007032741A121794E024F9C3940A5025E548
:104FC4000CF50B780B1219B77401121794AC82AD5F
:104FD40083E509A2E0E433F9EEFAEFFB1205C474A9
:104FE4000112175F741B024BB4124FF5AC82AD83F0
:104FF40022851882851983AA82AB8312102C851806
:10500400828519832274F71217A01208827508008A
:10501400E50875F00EA4F8A9F0749C28FE7407390D
:10502400FF7C0679FFEEFAEFFB1247217009EEFAD6
:10503400EFFB79001208880508E508C3940A40D0FC
:10504400024A8EC082C0839061907404F0A37448B5
:10505400F0A3E4F09061807440F09061BC7407F0B8
:105064009061877469F09061B67416F07900120B40
:10507400047902120B0A902284E493F46006E49308
:10508400F9120AE07905120DF8025489C082C0832E
:10509400E9540FF9906185E0696012E5C6548044D3
:1050A40049F5C6E59E547F644970F8E9F053C6801B
:1050B400E59E547F70FA02548974F71217A0E5A88C
:1050C400FE53A87E120AECC2BA539AFEC289759B9B
:1050D40000C2C2120AF275A91175B905120AF8D2F2
:1050E400BA439A0174805E42A8025A16C082C083F1
:1050F400906181E4F0A302548675E900759100750E
:10510400BF00020122C082C083906181E4F0A374D5
:10511400C0F0A3E4025488C082C08374F812174913
:105124009003C41258F8E84970030251D29003C4A2
:10513400E0544060237908851882851983AA82ABDC
:1051440083120BFA851882851983AA82AB8312080D
:10515400A69003C4E054BFF0E054806010790C7A48
:10516400807B05120BFA9003C4E0547FF0E0A2E0C8
:10517400500879001251DA54FEF0E05402600879C4
:10518400011251DA54FDF0E0540460087900125120
:10519400E554FBF0E05408600879011251E554F736
:1051A400F0E05410600879021251E554EFF0E05435
:1051B40020600879031251E554DFF0A3E054016044
:1051C4000D120B161208B89003C5E054FEF07408D3
:1051D40012175F025489120B041208AC9003C4E046
:1051E40022120B0A1208B29003C4E022C082C083C8
:1051F400E9600514602A804F90619A7433F0A374B7
:1052040055F09061A0743AF090055CE06401700977
:10521400C2919003C67467802D9003C67461802682
:1052240090619A743FF0A3745AF09061A0747FF077
:1052340090055CE064017009D2919003C67471809A
:10524400059003C6746AF0025489C082C083E96081
:105254000B14600D14600F1460118020902288805C
:1052640015902289801090228A800B90055CE0645E
:105274000160F390228BE493906186F00254897468
:10528400EE1217A074F4121749851882851983AC9D
:1052940082AD8375839075824B740412165C9022E0
:1052A4008893F46003025415907808E0C394025084
:1052B400030253F57404121794AC82AD8375838F83
:1052C4007582BE740812165CF97AFF7BFF7FFF7E3D
:1052D400008982858210801874086E70030253AAB4
:1052E40074096E70030253AA740A6E70030253AAFF
:1052F400E510C333FCE433FD7404121794E5822CE7
:10530400F582E5833DF583E0F50EA3E0F50F8E0805
:105314007509007402780812173674482508FC745D
:10532400783509FD8C828D837808121619740878F3
:105334000812155A85080C85090D8C828D8378080E
:105344001216197418780812155AE50C4508F50850
:10535400E50DF509C3E50E9508E50F95098C828DD9
:105364008378081216198C828D83780812161974A2
:10537400187808401412155AE50C4508FCAD0DE5E3
:105384000EC39CFCE50F9D800F12155AE50C4508D1
:10539400C3950EFCE50D950FFDC3EC9AED9B5006ED
:1053A400ECFAEDFBEEFF0EEEC3941350030252DC55
:1053B40074FF6A700374FF6B602D8F0874027808A1
:1053C40012173674481260A474783509F583780886
:1053D400121619851882851983E5822510F582E550
:1053E40083125E31E508F009E9C3940450030252C4
:1053F400CD75080175090078081219B374021217E3
:1054040094AC82AD837AA27B081212127402121732
:105414005F740C12175F7F0A021872C082C08390F7
:105424006186E0F890228BE49368700990228AE404
:1054340093906186F09061AE7468F0A3746AF09002
:10544400624574FBF0A304F053F4FD43FE0290059F
:105454005C7401F09061A0E0643A70047900800209
:105464007901120B04025489C082C08390050EE0B6
:105474006401700A900513E06004790C80027900DD
:105484008003F0A3F0D083D082020122C082C083C3
:1054940075E1F1900511E0604D1460081460511439
:1054A40060498051120B28900507E0F97A087B05C2
:1054B400120D7A90906F121637120DB090902F1231
:1054C4001637120D86900512E0F9120D9279011229
:1054D4000DEC900505E0241612561E7440F0A374DA
:1054E4000BF07900809F120B2E80BC120B3480B716
:1054F400120B3A80B2791280EB74F41217A075D9AA
:105504000D9004F6E0A2E0E4331313F812558A4830
:105514004401F5D9780012560840FB7800880874D5
:10552400F71260A4740412561240F275E1959004C7
:10553400F6E0F97AF77B04120D80900B9A74B6F0BA
:10554400A3740A12562D12564D1256441257851240
:105554005594780812161990906B78081215A59036
:10556400903778081215F3125618780812162890F6
:105574000505E0241412561E7413F09003C274023D
:10558400F07F04021872900507E0C4333354C0223C
:10559400900505E0F8A3E0F5838882A3A32274F6BE
:1055A4001217A01257568AD9780012560840FB7871
:1055B4000080061256BC125808E8C39940F51257E9
:1055C4004812560840FB780080081260A074051247
:1055D4005808E8C39940F375E195900B9A74C2F0AA
:1055E400A3740A12562D1256371216371256181271
:1055F4001643900505E0241412561E7412F090030D
:10560400C20259F3880874082508F58274051259F2
:1056140064940622900505E0240EF8A3E0125625B2
:10562400223400F9888289832212576E74BCF0A355
:10563400740A2212564D12564412578990907722BA
:10564400F0A374D4F0A3740A2212565122125655B0
:1056540022F0A37466F0A3740C2274F61217A0123D
:1056640056B112558A4402F5D9780012560840FB07
:10567400780080061256BC125808E8C39940F575A4
:10568400E195900B9A1256C7F0A31256C712563AD8
:10569400121637125618121643900505E0241412F8
:1056A400561E7414F09003C274040259F590051741
:1056B400E0F9740729F5D922880874182508F582B9
:1056C40074052274CE1256D41256D4F0A3740A224E
:1056D400F0A3740AF0A374CE2274F61217A0125722
:1056E4005674064AF5D9780012560840FB780080B3
:1056F400061256BC125808E8C39940F512574812CE
:10570400560840FB780080081260A07405125808FF
:10571400E8C39940F375E195900B9A74C8F0A374AB
:105724000A125764125637121637125618121643B5
:10573400900505E0241412561E7415F09003C274EB
:10574400030259F59005371256B474044AF5D97812
:1057540000221256B1900507E0C4333354C0FA2234
:1057640012576E7466F0A3740C22125772221257E9
:105774007F7466F0A3740C12577F22125655F0A35F
:105784002212578922F0900BA87466F0A3740C12AD
:1057940057727466F0A3740C125651F022C082C082
:1057A40083125594A3A3A3A3E402548674F7121797
:1057B400A01262E6F8740339F9E82405FAE9340022
:1057C400FB8A828B8312605588828983A3A3A3A357
:1057D400A3A3A3A3A3ECF0A3EDF088828983A3A3DE
:1057E400A3A3A3A3A3E024FFF8A3E034FFF98A82D0
:1057F4008B83E8F0A3E9F0025A1688087460250840
:10580400F5827405125F7CF5D90822EAFEEBFF905D
:1058140061D0E0F87480C398FAEE248322125827EA
:10582400940422125E3FE0F5D90AEAC32274F61208
:1058340017A0EAFEEBFF9061D0E0707575D90E7584
:10584400D90375D9047A008A08EE25081263B424B2
:105854008C1258CA40F17A008A08EE25081263B403
:10586400248412582140F175E1957908EE248C12B4
:1058740058C324841258BA7C008C82AA82C3E49A46
:10588400F895E0F9EE28F8EF39F9E8248BF582E988
:10589400125F78C0E0EE2A1263B424ABF582E912F9
:1058A4005E31D0E0F00CECC3940840CD12598080F6
:1058B4000279000259F6FAEF3400FB120BEE2212C1
:1058C40058BA7904EE22125827940822C082C08361
:1058D40075D90275D90375D90575E195EA2470F572
:1058E40082EB1258F5EA2472F582EB1259920254B3
:1058F40089125E421258FC22E0F8A3E0F92274F601
:105904001217A0EAFEEBFF900560740612596E129E
:1059140019B37C017903125C9A12175F75D9067565
:10592400D903780012595440FB75E1959003C2E005
:1059340064087017EE2470F582EF1258F5EE2472A5
:10594400F582EF125E31E8F0A3E9F079010259F62D
:10595400880874602508F582740512596494052238
:10596400125E42E0F5D908E8C322F07508607509B3
:105974000578082275E1957904120DB6EE2470F5C8
:1059840082EF125E421258FCEE2472F582EF125E30
:1059940042E8F0A3E9F079012274F61217A0EAFEB6
:1059A400EBFF9061D0E070437901900560740BF0D7
:1059B4009003C2E0640770177508607509057808DC
:1059C4001219B37C010909125C9A12175F790574E4
:1059D4000129F5D975D903780080031257FEE8C36D
:1059E4009940F875E195125980800279008003741A
:1059F40001F07F0202187274F71217A0EAFEEBFF9F
:105A040075D90375D90375D90DEE24DE125A1B120C
:105A140059787F01021872F582EF125F7CF5D92262
:105A24007F030218727401250AF5D975D903780029
:105A34002274F51217A0125AAA600478048002781E
:105A440000E8240BF8EAC3984041750A0990056000
:105A54007409F07908125A93601475086075090581
:105A640078081219B3125C9212175F750A0D125A54
:105A74002980031257FEE8C3950A40F775E195792A
:105A840004120DB6125C0F7901800279008091EE48
:105A940024E3FCEF3400FD7A617B05120BE88508F2
:105AA40082850983E02212580FF8EF126049F583CA
:105AB400E02274F31217A08A088B09125CA5FAE598
:105AC400082483F50AEB125B74600478048002787E
:105AD40000E82408F8EAC3985003025B6D750C06CD
:105AE400900560740CF09003DFE0900561F074029F
:105AF400C0E0F97CE07D037A627B05120BE8D0E01C
:105B0400F97CE27D03120BE8850A82850B83E06051
:105B14001C750A60750B05780A1219B37C067903A3
:105B2400AA08AB09125C9A12175F750C0A74012556
